{
  "contractName": "BOG",
  "abi": [
    {
      "inputs": [
        {
          "internalType": "string",
          "name": "baseURI",
          "type": "string"
        }
      ],
      "stateMutability": "nonpayable",
      "type": "constructor"
    },
    {
      "anonymous": false,
      "inputs": [
        {
          "indexed": true,
          "internalType": "address",
          "name": "owner",
          "type": "address"
        },
        {
          "indexed": true,
          "internalType": "address",
          "name": "approved",
          "type": "address"
        },
        {
          "indexed": true,
          "internalType": "uint256",
          "name": "tokenId",
          "type": "uint256"
        }
      ],
      "name": "Approval",
      "type": "event"
    },
    {
      "anonymous": false,
      "inputs": [
        {
          "indexed": true,
          "internalType": "address",
          "name": "owner",
          "type": "address"
        },
        {
          "indexed": true,
          "internalType": "address",
          "name": "operator",
          "type": "address"
        },
        {
          "indexed": false,
          "internalType": "bool",
          "name": "approved",
          "type": "bool"
        }
      ],
      "name": "ApprovalForAll",
      "type": "event"
    },
    {
      "anonymous": false,
      "inputs": [
        {
          "indexed": false,
          "internalType": "uint256",
          "name": "price",
          "type": "uint256"
        }
      ],
      "name": "NewPriceEvent",
      "type": "event"
    },
    {
      "anonymous": false,
      "inputs": [
        {
          "indexed": true,
          "internalType": "address",
          "name": "previousOwner",
          "type": "address"
        },
        {
          "indexed": true,
          "internalType": "address",
          "name": "newOwner",
          "type": "address"
        }
      ],
      "name": "OwnershipTransferred",
      "type": "event"
    },
    {
      "anonymous": false,
      "inputs": [
        {
          "indexed": false,
          "internalType": "bool",
          "name": "pause",
          "type": "bool"
        }
      ],
      "name": "PauseEvent",
      "type": "event"
    },
    {
      "anonymous": false,
      "inputs": [
        {
          "indexed": true,
          "internalType": "address",
          "name": "from",
          "type": "address"
        },
        {
          "indexed": true,
          "internalType": "address",
          "name": "to",
          "type": "address"
        },
        {
          "indexed": true,
          "internalType": "uint256",
          "name": "tokenId",
          "type": "uint256"
        }
      ],
      "name": "Transfer",
      "type": "event"
    },
    {
      "anonymous": false,
      "inputs": [
        {
          "indexed": true,
          "internalType": "uint256",
          "name": "id",
          "type": "uint256"
        }
      ],
      "name": "welcomeToBOG",
      "type": "event"
    },
    {
      "inputs": [],
      "name": "HIDE_FROM",
      "outputs": [
        {
          "internalType": "uint256",
          "name": "",
          "type": "uint256"
        }
      ],
      "stateMutability": "view",
      "type": "function"
    },
    {
      "inputs": [],
      "name": "HIDE_TO",
      "outputs": [
        {
          "internalType": "uint256",
          "name": "",
          "type": "uint256"
        }
      ],
      "stateMutability": "view",
      "type": "function"
    },
    {
      "inputs": [],
      "name": "MAX_ELEMENTS",
      "outputs": [
        {
          "internalType": "uint256",
          "name": "",
          "type": "uint256"
        }
      ],
      "stateMutability": "view",
      "type": "function"
    },
    {
      "inputs": [],
      "name": "META_REVEAL",
      "outputs": [
        {
          "internalType": "bool",
          "name": "",
          "type": "bool"
        }
      ],
      "stateMutability": "view",
      "type": "function"
    },
    {
      "inputs": [],
      "name": "PRICE",
      "outputs": [
        {
          "internalType": "uint256",
          "name": "",
          "type": "uint256"
        }
      ],
      "stateMutability": "view",
      "type": "function"
    },
    {
      "inputs": [],
      "name": "START_AT",
      "outputs": [
        {
          "internalType": "uint256",
          "name": "",
          "type": "uint256"
        }
      ],
      "stateMutability": "view",
      "type": "function"
    },
    {
      "inputs": [
        {
          "internalType": "address",
          "name": "to",
          "type": "address"
        },
        {
          "internalType": "uint256",
          "name": "tokenId",
          "type": "uint256"
        }
      ],
      "name": "approve",
      "outputs": [],
      "stateMutability": "nonpayable",
      "type": "function"
    },
    {
      "inputs": [
        {
          "internalType": "address",
          "name": "owner",
          "type": "address"
        }
      ],
      "name": "balanceOf",
      "outputs": [
        {
          "internalType": "uint256",
          "name": "",
          "type": "uint256"
        }
      ],
      "stateMutability": "view",
      "type": "function"
    },
    {
      "inputs": [],
      "name": "baseTokenURI",
      "outputs": [
        {
          "internalType": "string",
          "name": "",
          "type": "string"
        }
      ],
      "stateMutability": "view",
      "type": "function"
    },
    {
      "inputs": [],
      "name": "creator1Address",
      "outputs": [
        {
          "internalType": "address",
          "name": "",
          "type": "address"
        }
      ],
      "stateMutability": "view",
      "type": "function"
    },
    {
      "inputs": [],
      "name": "creator2Address",
      "outputs": [
        {
          "internalType": "address",
          "name": "",
          "type": "address"
        }
      ],
      "stateMutability": "view",
      "type": "function"
    },
    {
      "inputs": [],
      "name": "creator3Address",
      "outputs": [
        {
          "internalType": "address",
          "name": "",
          "type": "address"
        }
      ],
      "stateMutability": "view",
      "type": "function"
    },
    {
      "inputs": [
        {
          "internalType": "uint256",
          "name": "tokenId",
          "type": "uint256"
        }
      ],
      "name": "getApproved",
      "outputs": [
        {
          "internalType": "address",
          "name": "",
          "type": "address"
        }
      ],
      "stateMutability": "view",
      "type": "function"
    },
    {
      "inputs": [
        {
          "internalType": "address",
          "name": "owner",
          "type": "address"
        },
        {
          "internalType": "address",
          "name": "operator",
          "type": "address"
        }
      ],
      "name": "isApprovedForAll",
      "outputs": [
        {
          "internalType": "bool",
          "name": "",
          "type": "bool"
        }
      ],
      "stateMutability": "view",
      "type": "function"
    },
    {
      "inputs": [],
      "name": "name",
      "outputs": [
        {
          "internalType": "string",
          "name": "",
          "type": "string"
        }
      ],
      "stateMutability": "view",
      "type": "function"
    },
    {
      "inputs": [],
      "name": "owner",
      "outputs": [
        {
          "internalType": "address",
          "name": "",
          "type": "address"
        }
      ],
      "stateMutability": "view",
      "type": "function"
    },
    {
      "inputs": [
        {
          "internalType": "uint256",
          "name": "tokenId",
          "type": "uint256"
        }
      ],
      "name": "ownerOf",
      "outputs": [
        {
          "internalType": "address",
          "name": "",
          "type": "address"
        }
      ],
      "stateMutability": "view",
      "type": "function"
    },
    {
      "inputs": [
        {
          "internalType": "uint256",
          "name": "tokenId",
          "type": "uint256"
        }
      ],
      "name": "rawOwnerOf",
      "outputs": [
        {
          "internalType": "address",
          "name": "",
          "type": "address"
        }
      ],
      "stateMutability": "view",
      "type": "function"
    },
    {
      "inputs": [],
      "name": "renounceOwnership",
      "outputs": [],
      "stateMutability": "nonpayable",
      "type": "function"
    },
    {
      "inputs": [
        {
          "internalType": "address",
          "name": "from",
          "type": "address"
        },
        {
          "internalType": "address",
          "name": "to",
          "type": "address"
        },
        {
          "internalType": "uint256",
          "name": "tokenId",
          "type": "uint256"
        }
      ],
      "name": "safeTransferFrom",
      "outputs": [],
      "stateMutability": "nonpayable",
      "type": "function"
    },
    {
      "inputs": [
        {
          "internalType": "address",
          "name": "from",
          "type": "address"
        },
        {
          "internalType": "address",
          "name": "to",
          "type": "address"
        },
        {
          "internalType": "uint256",
          "name": "tokenId",
          "type": "uint256"
        },
        {
          "internalType": "bytes",
          "name": "_data",
          "type": "bytes"
        }
      ],
      "name": "safeTransferFrom",
      "outputs": [],
      "stateMutability": "nonpayable",
      "type": "function"
    },
    {
      "inputs": [],
      "name": "sampleTokenURI",
      "outputs": [
        {
          "internalType": "string",
          "name": "",
          "type": "string"
        }
      ],
      "stateMutability": "view",
      "type": "function"
    },
    {
      "inputs": [
        {
          "internalType": "address",
          "name": "operator",
          "type": "address"
        },
        {
          "internalType": "bool",
          "name": "approved",
          "type": "bool"
        }
      ],
      "name": "setApprovalForAll",
      "outputs": [],
      "stateMutability": "nonpayable",
      "type": "function"
    },
    {
      "inputs": [
        {
          "internalType": "bytes4",
          "name": "interfaceId",
          "type": "bytes4"
        }
      ],
      "name": "supportsInterface",
      "outputs": [
        {
          "internalType": "bool",
          "name": "",
          "type": "bool"
        }
      ],
      "stateMutability": "view",
      "type": "function"
    },
    {
      "inputs": [],
      "name": "symbol",
      "outputs": [
        {
          "internalType": "string",
          "name": "",
          "type": "string"
        }
      ],
      "stateMutability": "view",
      "type": "function"
    },
    {
      "inputs": [
        {
          "internalType": "uint256",
          "name": "index",
          "type": "uint256"
        }
      ],
      "name": "tokenByIndex",
      "outputs": [
        {
          "internalType": "uint256",
          "name": "",
          "type": "uint256"
        }
      ],
      "stateMutability": "view",
      "type": "function"
    },
    {
      "inputs": [
        {
          "internalType": "address",
          "name": "owner",
          "type": "address"
        },
        {
          "internalType": "uint256",
          "name": "index",
          "type": "uint256"
        }
      ],
      "name": "tokenOfOwnerByIndex",
      "outputs": [
        {
          "internalType": "uint256",
          "name": "",
          "type": "uint256"
        }
      ],
      "stateMutability": "view",
      "type": "function"
    },
    {
      "inputs": [],
      "name": "totalSupply",
      "outputs": [
        {
          "internalType": "uint256",
          "name": "",
          "type": "uint256"
        }
      ],
      "stateMutability": "view",
      "type": "function"
    },
    {
      "inputs": [
        {
          "internalType": "address",
          "name": "from",
          "type": "address"
        },
        {
          "internalType": "address",
          "name": "to",
          "type": "address"
        },
        {
          "internalType": "uint256",
          "name": "tokenId",
          "type": "uint256"
        }
      ],
      "name": "transferFrom",
      "outputs": [],
      "stateMutability": "nonpayable",
      "type": "function"
    },
    {
      "inputs": [
        {
          "internalType": "address",
          "name": "newOwner",
          "type": "address"
        }
      ],
      "name": "transferOwnership",
      "outputs": [],
      "stateMutability": "nonpayable",
      "type": "function"
    },
    {
      "inputs": [
        {
          "internalType": "string",
          "name": "baseURI",
          "type": "string"
        }
      ],
      "name": "setBaseURI",
      "outputs": [],
      "stateMutability": "nonpayable",
      "type": "function"
    },
    {
      "inputs": [
        {
          "internalType": "string",
          "name": "sampleURI",
          "type": "string"
        }
      ],
      "name": "setSampleURI",
      "outputs": [],
      "stateMutability": "nonpayable",
      "type": "function"
    },
    {
      "inputs": [],
      "name": "totalToken",
      "outputs": [
        {
          "internalType": "uint256",
          "name": "",
          "type": "uint256"
        }
      ],
      "stateMutability": "view",
      "type": "function"
    },
    {
      "inputs": [
        {
          "internalType": "uint256",
          "name": "tokenId",
          "type": "uint256"
        }
      ],
      "name": "tokenURI",
      "outputs": [
        {
          "internalType": "string",
          "name": "",
          "type": "string"
        }
      ],
      "stateMutability": "view",
      "type": "function"
    },
    {
      "inputs": [
        {
          "internalType": "uint256",
          "name": "_tokenAmount",
          "type": "uint256"
        },
        {
          "internalType": "uint256",
          "name": "_timestamp",
          "type": "uint256"
        },
        {
          "internalType": "bytes",
          "name": "_signature",
          "type": "bytes"
        }
      ],
      "name": "mint",
      "outputs": [],
      "stateMutability": "payable",
      "type": "function"
    },
    {
      "inputs": [
        {
          "internalType": "address",
          "name": "wallet",
          "type": "address"
        },
        {
          "internalType": "uint256",
          "name": "_tokenAmount",
          "type": "uint256"
        },
        {
          "internalType": "uint256",
          "name": "_timestamp",
          "type": "uint256"
        },
        {
          "internalType": "bytes",
          "name": "_signature",
          "type": "bytes"
        }
      ],
      "name": "signatureWallet",
      "outputs": [
        {
          "internalType": "address",
          "name": "",
          "type": "address"
        }
      ],
      "stateMutability": "pure",
      "type": "function"
    },
    {
      "inputs": [
        {
          "internalType": "uint256",
          "name": "_count",
          "type": "uint256"
        }
      ],
      "name": "price",
      "outputs": [
        {
          "internalType": "uint256",
          "name": "",
          "type": "uint256"
        }
      ],
      "stateMutability": "view",
      "type": "function"
    },
    {
      "inputs": [
        {
          "internalType": "address",
          "name": "_owner",
          "type": "address"
        }
      ],
      "name": "walletOfOwner",
      "outputs": [
        {
          "internalType": "uint256[]",
          "name": "",
          "type": "uint256[]"
        }
      ],
      "stateMutability": "view",
      "type": "function"
    },
    {
      "inputs": [
        {
          "internalType": "bool",
          "name": "_pause",
          "type": "bool"
        }
      ],
      "name": "setPause",
      "outputs": [],
      "stateMutability": "nonpayable",
      "type": "function"
    },
    {
      "inputs": [
        {
          "internalType": "uint256",
          "name": "_price",
          "type": "uint256"
        }
      ],
      "name": "setPrice",
      "outputs": [],
      "stateMutability": "nonpayable",
      "type": "function"
    },
    {
      "inputs": [
        {
          "internalType": "bool",
          "name": "_reveal",
          "type": "bool"
        },
        {
          "internalType": "uint256",
          "name": "_from",
          "type": "uint256"
        },
        {
          "internalType": "uint256",
          "name": "_to",
          "type": "uint256"
        }
      ],
      "name": "setMetaReveal",
      "outputs": [],
      "stateMutability": "nonpayable",
      "type": "function"
    },
    {
      "inputs": [],
      "name": "withdrawAll",
      "outputs": [],
      "stateMutability": "nonpayable",
      "type": "function"
    },
    {
      "inputs": [
        {
          "internalType": "address[]",
          "name": "_addrs",
          "type": "address[]"
        },
        {
          "internalType": "uint256[]",
          "name": "_tokenAmounts",
          "type": "uint256[]"
        }
      ],
      "name": "giftMint",
      "outputs": [],
      "stateMutability": "nonpayable",
      "type": "function"
    },
    {
      "inputs": [
        {
          "internalType": "uint256[]",
          "name": "_tokensId",
          "type": "uint256[]"
        }
      ],
      "name": "mintUnsoldTokens",
      "outputs": [],
      "stateMutability": "nonpayable",
      "type": "function"
    }
  ],
  "bytecode": "0x608060405266f8b0a10e470000600b556001600c60006101000a81548160ff0219169083151502179055506000600f60006101000a81548160ff02191690831515021790555060016010556127106011553480156200005d57600080fd5b506040516200607b3803806200607b83398181016040528101906200008391906200054b565b6040518060400160405280600e81526020017f426162696573206f6620476f64730000000000000000000000000000000000008152506040518060400160405280600381526020017f424f470000000000000000000000000000000000000000000000000000000000815250816000908051906020019062000107929190620002fe565b50806001908051906020019062000120929190620002fe565b50505062000143620001376200015b60201b60201c565b6200016360201b60201c565b62000154816200022960201b60201c565b5062000684565b600033905090565b6000600a60009054906101000a900473ffffffffffffffffffffffffffffffffffffffff16905081600a60006101000a81548173ffffffffffffffffffffffffffffffffffffffff021916908373ffffffffffffffffffffffffffffffffffffffff1602179055508173ffffffffffffffffffffffffffffffffffffffff168173ffffffffffffffffffffffffffffffffffffffff167f8be0079c531659141344cd1fd0a4f28419497f9722a3daafe3b4186f6b6457e060405160405180910390a35050565b620002396200015b60201b60201c565b73ffffffffffffffffffffffffffffffffffffffff166200025f620002d460201b60201c565b73ffffffffffffffffffffffffffffffffffffffff1614620002b8576040517f08c379a0000000000000000000000000000000000000000000000000000000008152600401620002af90620005fd565b60405180910390fd5b80600e9080519060200190620002d0929190620002fe565b5050565b6000600a60009054906101000a900473ffffffffffffffffffffffffffffffffffffffff16905090565b8280546200030c906200064e565b90600052602060002090601f0160209004810192826200033057600085556200037c565b82601f106200034b57805160ff19168380011785556200037c565b828001600101855582156200037c579182015b828111156200037b5782518255916020019190600101906200035e565b5b5090506200038b91906200038f565b5090565b5b80821115620003aa57600081600090555060010162000390565b5090565b6000604051905090565b600080fd5b600080fd5b600080fd5b600080fd5b6000601f19601f8301169050919050565b7f4e487b7100000000000000000000000000000000000000000000000000000000600052604160045260246000fd5b6200041782620003cc565b810181811067ffffffffffffffff82111715620004395762000438620003dd565b5b80604052505050565b60006200044e620003ae565b90506200045c82826200040c565b919050565b600067ffffffffffffffff8211156200047f576200047e620003dd565b5b6200048a82620003cc565b9050602081019050919050565b60005b83811015620004b75780820151818401526020810190506200049a565b83811115620004c7576000848401525b50505050565b6000620004e4620004de8462000461565b62000442565b905082815260208101848484011115620005035762000502620003c7565b5b6200051084828562000497565b509392505050565b600082601f83011262000530576200052f620003c2565b5b815162000542848260208601620004cd565b91505092915050565b600060208284031215620005645762000563620003b8565b5b600082015167ffffffffffffffff811115620005855762000584620003bd565b5b620005938482850162000518565b91505092915050565b600082825260208201905092915050565b7f4f776e61626c653a2063616c6c6572206973206e6f7420746865206f776e6572600082015250565b6000620005e56020836200059c565b9150620005f282620005ad565b602082019050919050565b600060208201905081810360008301526200061881620005d6565b9050919050565b7f4e487b7100000000000000000000000000000000000000000000000000000000600052602260045260246000fd5b600060028204905060018216806200066757607f821691505b602082108114156200067e576200067d6200061f565b5b50919050565b6159e780620006946000396000f3fe6080604052600436106102675760003560e01c8063715018a611610144578063b88d4fde116100b6578063c87b56dd1161007a578063c87b56dd14610921578063d09135051461095e578063d547cfb714610989578063e985e9c5146109b4578063f2320568146109f1578063f2fde38b14610a2e57610267565b8063b88d4fde1461084e578063bc13a68814610877578063bedb86fb146108a2578063bf7b766d146108cb578063c7427093146108f657610267565b80638da5cb5b116101085780638da5cb5b1461075257806391b7f5ed1461077d57806395d89b41146107a6578063a22cb465146107d1578063aa3d92fb146107fa578063b2992bb01461082557610267565b8063715018a6146106935780637f81be69146106aa578063853828b6146106e757806389ece941146106fe5780638d859f3e1461072757610267565b806326a49e37116101dd5780634f6ccce7116101a15780634f6ccce71461055f57806355f804b31461059c578063626be567146105c55780636352211e146105f05780636ea5d1781461062d57806370a082311461065657610267565b806326a49e37146104545780632f745c59146104915780633502a716146104ce57806342842e0e146104f9578063438b63001461052257610267565b8063095ea7b31161022f578063095ea7b314610358578063103c4b531461038157806312c2449f146103ac57806318160ddd146103d55780631ec858ec1461040057806323b872dd1461042b57610267565b806301ffc9a71461026c57806303b74ed8146102a957806306fdde03146102d4578063081812fc146102ff57806308dc9f421461033c575b600080fd5b34801561027857600080fd5b50610293600480360381019061028e9190613a8b565b610a57565b6040516102a09190613ad3565b60405180910390f35b3480156102b557600080fd5b506102be610ad1565b6040516102cb9190613b2f565b60405180910390f35b3480156102e057600080fd5b506102e9610ae9565b6040516102f69190613be3565b60405180910390f35b34801561030b57600080fd5b5061032660048036038101906103219190613c3b565b610b7b565b6040516103339190613b2f565b60405180910390f35b61035660048036038101906103519190613d9d565b610c00565b005b34801561036457600080fd5b5061037f600480360381019061037a9190613e38565b610eac565b005b34801561038d57600080fd5b50610396610fc4565b6040516103a39190613be3565b60405180910390f35b3480156103b857600080fd5b506103d360048036038101906103ce9190613ea4565b611052565b005b3480156103e157600080fd5b506103ea6110fb565b6040516103f79190613f06565b60405180910390f35b34801561040c57600080fd5b50610415611108565b6040516104229190613f06565b60405180910390f35b34801561043757600080fd5b50610452600480360381019061044d9190613f21565b61110e565b005b34801561046057600080fd5b5061047b60048036038101906104769190613c3b565b61116e565b6040516104889190613f06565b60405180910390f35b34801561049d57600080fd5b506104b860048036038101906104b39190613e38565b61118c565b6040516104c59190613f06565b60405180910390f35b3480156104da57600080fd5b506104e3611231565b6040516104f09190613f06565b60405180910390f35b34801561050557600080fd5b50610520600480360381019061051b9190613f21565b611237565b005b34801561052e57600080fd5b5061054960048036038101906105449190613f74565b611257565b604051610556919061405f565b60405180910390f35b34801561056b57600080fd5b5061058660048036038101906105819190613c3b565b611305565b6040516105939190613f06565b60405180910390f35b3480156105a857600080fd5b506105c360048036038101906105be9190614122565b611376565b005b3480156105d157600080fd5b506105da61140c565b6040516105e79190613f06565b60405180910390f35b3480156105fc57600080fd5b5061061760048036038101906106129190613c3b565b61141d565b6040516106249190613b2f565b60405180910390f35b34801561063957600080fd5b50610654600480360381019061064f91906142f6565b6114cf565b005b34801561066257600080fd5b5061067d60048036038101906106789190613f74565b611681565b60405161068a9190613f06565b60405180910390f35b34801561069f57600080fd5b506106a8611739565b005b3480156106b657600080fd5b506106d160048036038101906106cc9190613c3b565b6117c1565b6040516106de9190613b2f565b60405180910390f35b3480156106f357600080fd5b506106fc6117fe565b005b34801561070a57600080fd5b5061072560048036038101906107209190614122565b611935565b005b34801561073357600080fd5b5061073c6119cb565b6040516107499190613f06565b60405180910390f35b34801561075e57600080fd5b506107676119d1565b6040516107749190613b2f565b60405180910390f35b34801561078957600080fd5b506107a4600480360381019061079f9190613c3b565b6119fb565b005b3480156107b257600080fd5b506107bb611aba565b6040516107c89190613be3565b60405180910390f35b3480156107dd57600080fd5b506107f860048036038101906107f3919061436e565b611b4c565b005b34801561080657600080fd5b5061080f611ccd565b60405161081c9190613b2f565b60405180910390f35b34801561083157600080fd5b5061084c600480360381019061084791906143ae565b611ce5565b005b34801561085a57600080fd5b50610875600480360381019061087091906143f7565b611e56565b005b34801561088357600080fd5b5061088c611eb8565b6040516108999190613ad3565b60405180910390f35b3480156108ae57600080fd5b506108c960048036038101906108c4919061447a565b611ecb565b005b3480156108d757600080fd5b506108e0611faa565b6040516108ed9190613f06565b60405180910390f35b34801561090257600080fd5b5061090b611faf565b6040516109189190613f06565b60405180910390f35b34801561092d57600080fd5b5061094860048036038101906109439190613c3b565b611fb5565b6040516109559190613be3565b60405180910390f35b34801561096a57600080fd5b50610973612121565b6040516109809190613b2f565b60405180910390f35b34801561099557600080fd5b5061099e612139565b6040516109ab9190613be3565b60405180910390f35b3480156109c057600080fd5b506109db60048036038101906109d691906144a7565b6121c7565b6040516109e89190613ad3565b60405180910390f35b3480156109fd57600080fd5b50610a186004803603810190610a1391906144e7565b61225b565b604051610a259190613b2f565b60405180910390f35b348015610a3a57600080fd5b50610a556004803603810190610a509190613f74565b61229b565b005b60007f780e9d63000000000000000000000000000000000000000000000000000000007bffffffffffffffffffffffffffffffffffffffffffffffffffffffff1916827bffffffffffffffffffffffffffffffffffffffffffffffffffffffff19161480610aca5750610ac982612393565b5b9050919050565b733a372f725a97b968a839e3d49a0d7320f52be0e281565b606060008054610af890614599565b80601f0160208091040260200160405190810160405280929190818152602001828054610b2490614599565b8015610b715780601f10610b4657610100808354040283529160200191610b71565b820191906000526020600020905b815481529060010190602001808311610b5457829003601f168201915b5050505050905090565b6000610b8682612475565b610bc5576040517f08c379a0000000000000000000000000000000000000000000000000000000008152600401610bbc9061463d565b60405180910390fd5b6004600083815260200190815260200160002060009054906101000a900473ffffffffffffffffffffffffffffffffffffffff169050919050565b612710610c0b61140c565b1115610c4c576040517f08c379a0000000000000000000000000000000000000000000000000000000008152600401610c43906146a9565b60405180910390fd5b600c60009054906101000a900460ff1615610c9c576040517f08c379a0000000000000000000000000000000000000000000000000000000008152600401610c9390614715565b60405180910390fd5b6000610ca661140c565b90506003841115610cec576040517f08c379a0000000000000000000000000000000000000000000000000000000008152600401610ce390614781565b60405180910390fd5b6127108482610cfb91906147d0565b1115610d3c576040517f08c379a0000000000000000000000000000000000000000000000000000000008152600401610d3390614781565b60405180910390fd5b610d458461116e565b341015610d87576040517f08c379a0000000000000000000000000000000000000000000000000000000008152600401610d7e90614872565b60405180910390fd5b6000610d916124e1565b90506000610da18287878761225b565b9050610dab6119d1565b73ffffffffffffffffffffffffffffffffffffffff168173ffffffffffffffffffffffffffffffffffffffff1614610e18576040517f08c379a0000000000000000000000000000000000000000000000000000000008152600401610e0f906148de565b60405180910390fd5b601e85610e2591906148fe565b421015610e67576040517f08c379a0000000000000000000000000000000000000000000000000000000008152600401610e5e9061497e565b60405180910390fd5b6000600190505b868160ff1611610ea357610e90838260ff1686610e8b91906147d0565b6124e9565b8080610e9b906149ab565b915050610e6e565b50505050505050565b6000610eb78261141d565b90508073ffffffffffffffffffffffffffffffffffffffff168373ffffffffffffffffffffffffffffffffffffffff161415610f28576040517f08c379a0000000000000000000000000000000000000000000000000000000008152600401610f1f90614a47565b60405180910390fd5b8073ffffffffffffffffffffffffffffffffffffffff16610f476124e1565b73ffffffffffffffffffffffffffffffffffffffff161480610f765750610f7581610f706124e1565b6121c7565b5b610fb5576040517f08c379a0000000000000000000000000000000000000000000000000000000008152600401610fac90614ad9565b60405180910390fd5b610fbf838361252e565b505050565b60128054610fd190614599565b80601f0160208091040260200160405190810160405280929190818152602001828054610ffd90614599565b801561104a5780601f1061101f5761010080835404028352916020019161104a565b820191906000526020600020905b81548152906001019060200180831161102d57829003601f168201915b505050505081565b61105a6124e1565b73ffffffffffffffffffffffffffffffffffffffff166110786119d1565b73ffffffffffffffffffffffffffffffffffffffff16146110ce576040517f08c379a00000000000000000000000000000000000000000000000000000000081526004016110c590614b45565b60405180910390fd5b82600f60006101000a81548160ff0219169083151502179055508160108190555080601181905550505050565b6000600880549050905090565b60105481565b61111f6111196124e1565b826125e7565b61115e576040517f08c379a000000000000000000000000000000000000000000000000000000000815260040161115590614bd7565b60405180910390fd5b6111698383836126c5565b505050565b600061118582600b5461292190919063ffffffff16565b9050919050565b600061119783611681565b82106111d8576040517f08c379a00000000000000000000000000000000000000000000000000000000081526004016111cf90614c69565b60405180910390fd5b600660008473ffffffffffffffffffffffffffffffffffffffff1673ffffffffffffffffffffffffffffffffffffffff168152602001908152602001600020600083815260200190815260200160002054905092915050565b61271081565b61125283838360405180602001604052806000815250611e56565b505050565b6060600061126483611681565b905060008167ffffffffffffffff81111561128257611281613c72565b5b6040519080825280602002602001820160405280156112b05781602001602082028036833780820191505090505b50905060005b828110156112fa576112c8858261118c565b8282815181106112db576112da614c89565b5b60200260200101818152505080806112f290614cb8565b9150506112b6565b508092505050919050565b600061130f6110fb565b8210611350576040517f08c379a000000000000000000000000000000000000000000000000000000000815260040161134790614d73565b60405180910390fd5b6008828154811061136457611363614c89565b5b90600052602060002001549050919050565b61137e6124e1565b73ffffffffffffffffffffffffffffffffffffffff1661139c6119d1565b73ffffffffffffffffffffffffffffffffffffffff16146113f2576040517f08c379a00000000000000000000000000000000000000000000000000000000081526004016113e990614b45565b60405180910390fd5b80600e908051906020019061140892919061397c565b5050565b6000611418600d612937565b905090565b6000806002600084815260200190815260200160002060009054906101000a900473ffffffffffffffffffffffffffffffffffffffff169050600073ffffffffffffffffffffffffffffffffffffffff168173ffffffffffffffffffffffffffffffffffffffff1614156114c6576040517f08c379a00000000000000000000000000000000000000000000000000000000081526004016114bd90614e05565b60405180910390fd5b80915050919050565b6114d76124e1565b73ffffffffffffffffffffffffffffffffffffffff166114f56119d1565b73ffffffffffffffffffffffffffffffffffffffff161461154b576040517f08c379a000000000000000000000000000000000000000000000000000000000815260040161154290614b45565b60405180910390fd5b60008061155661140c565b905060005b845181101561159f5783818151811061157757611576614c89565b5b60200260200101518361158a91906147d0565b9250808061159790614cb8565b91505061155b565b5061271082826115af91906147d0565b11156115f0576040517f08c379a00000000000000000000000000000000000000000000000000000000081526004016115e790614781565b60405180910390fd5b60005b845181101561167a5760005b84828151811061161257611611614c89565b5b602002602001015181101561166657828061162c90614cb8565b93505061165386838151811061164557611644614c89565b5b6020026020010151846124e9565b808061165e90614cb8565b9150506115ff565b50808061167290614cb8565b9150506115f3565b5050505050565b60008073ffffffffffffffffffffffffffffffffffffffff168273ffffffffffffffffffffffffffffffffffffffff1614156116f2576040517f08c379a00000000000000000000000000000000000000000000000000000000081526004016116e990614e97565b60405180910390fd5b600360008373ffffffffffffffffffffffffffffffffffffffff1673ffffffffffffffffffffffffffffffffffffffff168152602001908152602001600020549050919050565b6117416124e1565b73ffffffffffffffffffffffffffffffffffffffff1661175f6119d1565b73ffffffffffffffffffffffffffffffffffffffff16146117b5576040517f08c379a00000000000000000000000000000000000000000000000000000000081526004016117ac90614b45565b60405180910390fd5b6117bf6000612945565b565b60006002600083815260200190815260200160002060009054906101000a900473ffffffffffffffffffffffffffffffffffffffff169050919050565b6118066124e1565b73ffffffffffffffffffffffffffffffffffffffff166118246119d1565b73ffffffffffffffffffffffffffffffffffffffff161461187a576040517f08c379a000000000000000000000000000000000000000000000000000000000815260040161187190614b45565b60405180910390fd5b60004790506000811161188c57600080fd5b6118d0732f5c4ca63835d877aa3a570b3f68d8c05353774e6118cb60646118bd600f8661292190919063ffffffff16565b612a0b90919063ffffffff16565b612a21565b61191473dbe24d356c5fbaa4f18c37f6610c565e50d6c19561190f6064611901600f8661292190919063ffffffff16565b612a0b90919063ffffffff16565b612a21565b611932733a372f725a97b968a839e3d49a0d7320f52be0e247612a21565b50565b61193d6124e1565b73ffffffffffffffffffffffffffffffffffffffff1661195b6119d1565b73ffffffffffffffffffffffffffffffffffffffff16146119b1576040517f08c379a00000000000000000000000000000000000000000000000000000000081526004016119a890614b45565b60405180910390fd5b80601290805190602001906119c792919061397c565b5050565b600b5481565b6000600a60009054906101000a900473ffffffffffffffffffffffffffffffffffffffff16905090565b611a036124e1565b73ffffffffffffffffffffffffffffffffffffffff16611a216119d1565b73ffffffffffffffffffffffffffffffffffffffff1614611a77576040517f08c379a0000000000000000000000000000000000000000000000000000000008152600401611a6e90614b45565b60405180910390fd5b80600b819055507f0e4af3870af723022c49a1ebcf7379a14fa7732c2dc92925407b8d219116a26b600b54604051611aaf9190613f06565b60405180910390a150565b606060018054611ac990614599565b80601f0160208091040260200160405190810160405280929190818152602001828054611af590614599565b8015611b425780601f10611b1757610100808354040283529160200191611b42565b820191906000526020600020905b815481529060010190602001808311611b2557829003601f168201915b5050505050905090565b611b546124e1565b73ffffffffffffffffffffffffffffffffffffffff168273ffffffffffffffffffffffffffffffffffffffff161415611bc2576040517f08c379a0000000000000000000000000000000000000000000000000000000008152600401611bb990614f03565b60405180910390fd5b8060056000611bcf6124e1565b73ffffffffffffffffffffffffffffffffffffffff1673ffffffffffffffffffffffffffffffffffffffff16815260200190815260200160002060008473ffffffffffffffffffffffffffffffffffffffff1673ffffffffffffffffffffffffffffffffffffffff16815260200190815260200160002060006101000a81548160ff0219169083151502179055508173ffffffffffffffffffffffffffffffffffffffff16611c7c6124e1565b73ffffffffffffffffffffffffffffffffffffffff167f17307eab39ab6107e8899845ad3d59bd9653f200f220920489ca2b5937696c3183604051611cc19190613ad3565b60405180910390a35050565b73dbe24d356c5fbaa4f18c37f6610c565e50d6c19581565b611ced6124e1565b73ffffffffffffffffffffffffffffffffffffffff16611d0b6119d1565b73ffffffffffffffffffffffffffffffffffffffff1614611d61576040517f08c379a0000000000000000000000000000000000000000000000000000000008152600401611d5890614b45565b60405180910390fd5b600c60009054906101000a900460ff16611db0576040517f08c379a0000000000000000000000000000000000000000000000000000000008152600401611da790614f6f565b60405180910390fd5b60005b8151811015611e5257600073ffffffffffffffffffffffffffffffffffffffff16611df7838381518110611dea57611de9614c89565b5b60200260200101516117c1565b73ffffffffffffffffffffffffffffffffffffffff161415611e3f57611e3e611e1e6119d1565b838381518110611e3157611e30614c89565b5b60200260200101516124e9565b5b8080611e4a90614cb8565b915050611db3565b5050565b611e67611e616124e1565b836125e7565b611ea6576040517f08c379a0000000000000000000000000000000000000000000000000000000008152600401611e9d90614bd7565b60405180910390fd5b611eb284848484612ad2565b50505050565b600f60009054906101000a900460ff1681565b611ed36124e1565b73ffffffffffffffffffffffffffffffffffffffff16611ef16119d1565b73ffffffffffffffffffffffffffffffffffffffff1614611f47576040517f08c379a0000000000000000000000000000000000000000000000000000000008152600401611f3e90614b45565b60405180910390fd5b80600c60006101000a81548160ff0219169083151502179055507f10e1c3fcaff06b68391033547e8f9bb8067d7c4a2e32659b0629153814d242d3600c60009054906101000a900460ff16604051611f9f9190613ad3565b60405180910390a150565b600181565b60115481565b6060611fc082612475565b611fff576040517f08c379a0000000000000000000000000000000000000000000000000000000008152600401611ff690615001565b60405180910390fd5b600f60009054906101000a900460ff1615801561201e57506010548210155b801561202c57506011548211155b156120c3576012805461203e90614599565b80601f016020809104026020016040519081016040528092919081815260200182805461206a90614599565b80156120b75780601f1061208c576101008083540402835291602001916120b7565b820191906000526020600020905b81548152906001019060200180831161209a57829003601f168201915b5050505050905061211c565b60006120cd612b2e565b905060008151116120ed5760405180602001604052806000815250612118565b806120f784612bc0565b60405160200161210892919061505d565b6040516020818303038152906040525b9150505b919050565b732f5c4ca63835d877aa3a570b3f68d8c05353774e81565b600e805461214690614599565b80601f016020809104026020016040519081016040528092919081815260200182805461217290614599565b80156121bf5780601f10612194576101008083540402835291602001916121bf565b820191906000526020600020905b8154815290600101906020018083116121a257829003601f168201915b505050505081565b6000600560008473ffffffffffffffffffffffffffffffffffffffff1673ffffffffffffffffffffffffffffffffffffffff16815260200190815260200160002060008373ffffffffffffffffffffffffffffffffffffffff1673ffffffffffffffffffffffffffffffffffffffff16815260200190815260200160002060009054906101000a900460ff16905092915050565b600061229185858560405160200161227593929190615081565b6040516020818303038152906040528051906020012083612d21565b9050949350505050565b6122a36124e1565b73ffffffffffffffffffffffffffffffffffffffff166122c16119d1565b73ffffffffffffffffffffffffffffffffffffffff1614612317576040517f08c379a000000000000000000000000000000000000000000000000000000000815260040161230e90614b45565b60405180910390fd5b600073ffffffffffffffffffffffffffffffffffffffff168173ffffffffffffffffffffffffffffffffffffffff161415612387576040517f08c379a000000000000000000000000000000000000000000000000000000000815260040161237e9061512a565b60405180910390fd5b61239081612945565b50565b60007f80ac58cd000000000000000000000000000000000000000000000000000000007bffffffffffffffffffffffffffffffffffffffffffffffffffffffff1916827bffffffffffffffffffffffffffffffffffffffffffffffffffffffff1916148061245e57507f5b5e139f000000000000000000000000000000000000000000000000000000007bffffffffffffffffffffffffffffffffffffffffffffffffffffffff1916827bffffffffffffffffffffffffffffffffffffffffffffffffffffffff1916145b8061246e575061246d82612d48565b5b9050919050565b60008073ffffffffffffffffffffffffffffffffffffffff166002600084815260200190815260200160002060009054906101000a900473ffffffffffffffffffffffffffffffffffffffff1673ffffffffffffffffffffffffffffffffffffffff1614159050919050565b600033905090565b6124f3600d612db2565b6124fd8282612dc8565b807f1d030ee5aeba6671fc61bc0cc3ee6df7c7d3d012d7de0a07510ad01be8b58ecc60405160405180910390a25050565b816004600083815260200190815260200160002060006101000a81548173ffffffffffffffffffffffffffffffffffffffff021916908373ffffffffffffffffffffffffffffffffffffffff160217905550808273ffffffffffffffffffffffffffffffffffffffff166125a18361141d565b73ffffffffffffffffffffffffffffffffffffffff167f8c5be1e5ebec7d5bd14f71427d1e84f3dd0314c0f7b2291e5b200ac8c7c3b92560405160405180910390a45050565b60006125f282612475565b612631576040517f08c379a0000000000000000000000000000000000000000000000000000000008152600401612628906151bc565b60405180910390fd5b600061263c8361141d565b90508073ffffffffffffffffffffffffffffffffffffffff168473ffffffffffffffffffffffffffffffffffffffff1614806126ab57508373ffffffffffffffffffffffffffffffffffffffff1661269384610b7b565b73ffffffffffffffffffffffffffffffffffffffff16145b806126bc57506126bb81856121c7565b5b91505092915050565b8273ffffffffffffffffffffffffffffffffffffffff166126e58261141d565b73ffffffffffffffffffffffffffffffffffffffff161461273b576040517f08c379a00000000000000000000000000000000000000000000000000000000081526004016127329061524e565b60405180910390fd5b600073ffffffffffffffffffffffffffffffffffffffff168273ffffffffffffffffffffffffffffffffffffffff1614156127ab576040517f08c379a00000000000000000000000000000000000000000000000000000000081526004016127a2906152e0565b60405180910390fd5b6127b6838383612de6565b6127c160008261252e565b6001600360008573ffffffffffffffffffffffffffffffffffffffff1673ffffffffffffffffffffffffffffffffffffffff168152602001908152602001600020600082825461281191906148fe565b925050819055506001600360008473ffffffffffffffffffffffffffffffffffffffff1673ffffffffffffffffffffffffffffffffffffffff168152602001908152602001600020600082825461286891906147d0565b92505081905550816002600083815260200190815260200160002060006101000a81548173ffffffffffffffffffffffffffffffffffffffff021916908373ffffffffffffffffffffffffffffffffffffffff160217905550808273ffffffffffffffffffffffffffffffffffffffff168473ffffffffffffffffffffffffffffffffffffffff167fddf252ad1be2c89b69c2b068fc378daa952ba7f163c4a11628f55a4df523b3ef60405160405180910390a4505050565b6000818361292f9190615300565b905092915050565b600081600001549050919050565b6000600a60009054906101000a900473ffffffffffffffffffffffffffffffffffffffff16905081600a60006101000a81548173ffffffffffffffffffffffffffffffffffffffff021916908373ffffffffffffffffffffffffffffffffffffffff1602179055508173ffffffffffffffffffffffffffffffffffffffff168173ffffffffffffffffffffffffffffffffffffffff167f8be0079c531659141344cd1fd0a4f28419497f9722a3daafe3b4186f6b6457e060405160405180910390a35050565b60008183612a199190615389565b905092915050565b60008273ffffffffffffffffffffffffffffffffffffffff1682604051612a47906153eb565b60006040518083038185875af1925050503d8060008114612a84576040519150601f19603f3d011682016040523d82523d6000602084013e612a89565b606091505b5050905080612acd576040517f08c379a0000000000000000000000000000000000000000000000000000000008152600401612ac49061544c565b60405180910390fd5b505050565b612add8484846126c5565b612ae984848484612efa565b612b28576040517f08c379a0000000000000000000000000000000000000000000000000000000008152600401612b1f906154de565b60405180910390fd5b50505050565b6060600e8054612b3d90614599565b80601f0160208091040260200160405190810160405280929190818152602001828054612b6990614599565b8015612bb65780601f10612b8b57610100808354040283529160200191612bb6565b820191906000526020600020905b815481529060010190602001808311612b9957829003601f168201915b5050505050905090565b60606000821415612c08576040518060400160405280600181526020017f30000000000000000000000000000000000000000000000000000000000000008152509050612d1c565b600082905060005b60008214612c3a578080612c2390614cb8565b915050600a82612c339190615389565b9150612c10565b60008167ffffffffffffffff811115612c5657612c55613c72565b5b6040519080825280601f01601f191660200182016040528015612c885781602001600182028036833780820191505090505b5090505b60008514612d1557600182612ca191906148fe565b9150600a85612cb091906154fe565b6030612cbc91906147d0565b60f81b818381518110612cd257612cd1614c89565b5b60200101907effffffffffffffffffffffffffffffffffffffffffffffffffffffffffffff1916908160001a905350600a85612d0e9190615389565b9450612c8c565b8093505050505b919050565b6000806000612d308585613082565b91509150612d3d81613105565b819250505092915050565b60007f01ffc9a7000000000000000000000000000000000000000000000000000000007bffffffffffffffffffffffffffffffffffffffffffffffffffffffff1916827bffffffffffffffffffffffffffffffffffffffffffffffffffffffff1916149050919050565b6001816000016000828254019250508190555050565b612de28282604051806020016040528060008152506132da565b5050565b612df1838383613335565b600073ffffffffffffffffffffffffffffffffffffffff168373ffffffffffffffffffffffffffffffffffffffff161415612e3457612e2f8161333a565b612e73565b8173ffffffffffffffffffffffffffffffffffffffff168373ffffffffffffffffffffffffffffffffffffffff1614612e7257612e718382613383565b5b5b600073ffffffffffffffffffffffffffffffffffffffff168273ffffffffffffffffffffffffffffffffffffffff161415612eb657612eb1816134f0565b612ef5565b8273ffffffffffffffffffffffffffffffffffffffff168273ffffffffffffffffffffffffffffffffffffffff1614612ef457612ef382826135c1565b5b5b505050565b6000612f1b8473ffffffffffffffffffffffffffffffffffffffff16613640565b15613075578373ffffffffffffffffffffffffffffffffffffffff1663150b7a02612f446124e1565b8786866040518563ffffffff1660e01b8152600401612f669493929190615584565b6020604051808303816000875af1925050508015612fa257506040513d601f19601f82011682018060405250810190612f9f91906155e5565b60015b613025573d8060008114612fd2576040519150601f19603f3d011682016040523d82523d6000602084013e612fd7565b606091505b5060008151141561301d576040517f08c379a0000000000000000000000000000000000000000000000000000000008152600401613014906154de565b60405180910390fd5b805181602001fd5b63150b7a0260e01b7bffffffffffffffffffffffffffffffffffffffffffffffffffffffff1916817bffffffffffffffffffffffffffffffffffffffffffffffffffffffff19161491505061307a565b600190505b949350505050565b6000806041835114156130c45760008060006020860151925060408601519150606086015160001a90506130b887828585613653565b945094505050506130fe565b6040835114156130f55760008060208501519150604085015190506130ea868383613760565b9350935050506130fe565b60006002915091505b9250929050565b6000600481111561311957613118615612565b5b81600481111561312c5761312b615612565b5b1415613137576132d7565b6001600481111561314b5761314a615612565b5b81600481111561315e5761315d615612565b5b141561319f576040517f08c379a00000000000000000000000000000000000000000000000000000000081526004016131969061568d565b60405180910390fd5b600260048111156131b3576131b2615612565b5b8160048111156131c6576131c5615612565b5b1415613207576040517f08c379a00000000000000000000000000000000000000000000000000000000081526004016131fe906156f9565b60405180910390fd5b6003600481111561321b5761321a615612565b5b81600481111561322e5761322d615612565b5b141561326f576040517f08c379a00000000000000000000000000000000000000000000000000000000081526004016132669061578b565b60405180910390fd5b60048081111561328257613281615612565b5b81600481111561329557613294615612565b5b14156132d6576040517f08c379a00000000000000000000000000000000000000000000000000000000081526004016132cd9061581d565b60405180910390fd5b5b50565b6132e483836137ae565b6132f16000848484612efa565b613330576040517f08c379a0000000000000000000000000000000000000000000000000000000008152600401613327906154de565b60405180910390fd5b505050565b505050565b6008805490506009600083815260200190815260200160002081905550600881908060018154018082558091505060019003906000526020600020016000909190919091505550565b6000600161339084611681565b61339a91906148fe565b905060006007600084815260200190815260200160002054905081811461347f576000600660008673ffffffffffffffffffffffffffffffffffffffff1673ffffffffffffffffffffffffffffffffffffffff168152602001908152602001600020600084815260200190815260200160002054905080600660008773ffffffffffffffffffffffffffffffffffffffff1673ffffffffffffffffffffffffffffffffffffffff168152602001908152602001600020600084815260200190815260200160002081905550816007600083815260200190815260200160002081905550505b6007600084815260200190815260200160002060009055600660008573ffffffffffffffffffffffffffffffffffffffff1673ffffffffffffffffffffffffffffffffffffffff16815260200190815260200160002060008381526020019081526020016000206000905550505050565b6000600160088054905061350491906148fe565b905060006009600084815260200190815260200160002054905060006008838154811061353457613533614c89565b5b90600052602060002001549050806008838154811061355657613555614c89565b5b9060005260206000200181905550816009600083815260200190815260200160002081905550600960008581526020019081526020016000206000905560088054806135a5576135a461583d565b5b6001900381819060005260206000200160009055905550505050565b60006135cc83611681565b905081600660008573ffffffffffffffffffffffffffffffffffffffff1673ffffffffffffffffffffffffffffffffffffffff168152602001908152602001600020600083815260200190815260200160002081905550806007600084815260200190815260200160002081905550505050565b600080823b905060008111915050919050565b6000807f7fffffffffffffffffffffffffffffff5d576e7357a4501ddfe92f46681b20a08360001c111561368e576000600391509150613757565b601b8560ff16141580156136a65750601c8560ff1614155b156136b8576000600491509150613757565b6000600187878787604051600081526020016040526040516136dd9493929190615894565b6020604051602081039080840390855afa1580156136ff573d6000803e3d6000fd5b505050602060405103519050600073ffffffffffffffffffffffffffffffffffffffff168173ffffffffffffffffffffffffffffffffffffffff16141561374e57600060019250925050613757565b80600092509250505b94509492505050565b6000806000807f7fffffffffffffffffffffffffffffffffffffffffffffffffffffffffffffff85169150601b8560ff1c0190506137a087828885613653565b935093505050935093915050565b600073ffffffffffffffffffffffffffffffffffffffff168273ffffffffffffffffffffffffffffffffffffffff16141561381e576040517f08c379a000000000000000000000000000000000000000000000000000000000815260040161381590615925565b60405180910390fd5b61382781612475565b15613867576040517f08c379a000000000000000000000000000000000000000000000000000000000815260040161385e90615991565b60405180910390fd5b61387360008383612de6565b6001600360008473ffffffffffffffffffffffffffffffffffffffff1673ffffffffffffffffffffffffffffffffffffffff16815260200190815260200160002060008282546138c391906147d0565b92505081905550816002600083815260200190815260200160002060006101000a81548173ffffffffffffffffffffffffffffffffffffffff021916908373ffffffffffffffffffffffffffffffffffffffff160217905550808273ffffffffffffffffffffffffffffffffffffffff16600073ffffffffffffffffffffffffffffffffffffffff167fddf252ad1be2c89b69c2b068fc378daa952ba7f163c4a11628f55a4df523b3ef60405160405180910390a45050565b82805461398890614599565b90600052602060002090601f0160209004810192826139aa57600085556139f1565b82601f106139c357805160ff19168380011785556139f1565b828001600101855582156139f1579182015b828111156139f05782518255916020019190600101906139d5565b5b5090506139fe9190613a02565b5090565b5b80821115613a1b576000816000905550600101613a03565b5090565b6000604051905090565b600080fd5b600080fd5b60007fffffffff0000000000000000000000000000000000000000000000000000000082169050919050565b613a6881613a33565b8114613a7357600080fd5b50565b600081359050613a8581613a5f565b92915050565b600060208284031215613aa157613aa0613a29565b5b6000613aaf84828501613a76565b91505092915050565b60008115159050919050565b613acd81613ab8565b82525050565b6000602082019050613ae86000830184613ac4565b92915050565b600073ffffffffffffffffffffffffffffffffffffffff82169050919050565b6000613b1982613aee565b9050919050565b613b2981613b0e565b82525050565b6000602082019050613b446000830184613b20565b92915050565b600081519050919050565b600082825260208201905092915050565b60005b83811015613b84578082015181840152602081019050613b69565b83811115613b93576000848401525b50505050565b6000601f19601f8301169050919050565b6000613bb582613b4a565b613bbf8185613b55565b9350613bcf818560208601613b66565b613bd881613b99565b840191505092915050565b60006020820190508181036000830152613bfd8184613baa565b905092915050565b6000819050919050565b613c1881613c05565b8114613c2357600080fd5b50565b600081359050613c3581613c0f565b92915050565b600060208284031215613c5157613c50613a29565b5b6000613c5f84828501613c26565b91505092915050565b600080fd5b600080fd5b7f4e487b7100000000000000000000000000000000000000000000000000000000600052604160045260246000fd5b613caa82613b99565b810181811067ffffffffffffffff82111715613cc957613cc8613c72565b5b80604052505050565b6000613cdc613a1f565b9050613ce88282613ca1565b919050565b600067ffffffffffffffff821115613d0857613d07613c72565b5b613d1182613b99565b9050602081019050919050565b82818337600083830152505050565b6000613d40613d3b84613ced565b613cd2565b905082815260208101848484011115613d5c57613d5b613c6d565b5b613d67848285613d1e565b509392505050565b600082601f830112613d8457613d83613c68565b5b8135613d94848260208601613d2d565b91505092915050565b600080600060608486031215613db657613db5613a29565b5b6000613dc486828701613c26565b9350506020613dd586828701613c26565b925050604084013567ffffffffffffffff811115613df657613df5613a2e565b5b613e0286828701613d6f565b9150509250925092565b613e1581613b0e565b8114613e2057600080fd5b50565b600081359050613e3281613e0c565b92915050565b60008060408385031215613e4f57613e4e613a29565b5b6000613e5d85828601613e23565b9250506020613e6e85828601613c26565b9150509250929050565b613e8181613ab8565b8114613e8c57600080fd5b50565b600081359050613e9e81613e78565b92915050565b600080600060608486031215613ebd57613ebc613a29565b5b6000613ecb86828701613e8f565b9350506020613edc86828701613c26565b9250506040613eed86828701613c26565b9150509250925092565b613f0081613c05565b82525050565b6000602082019050613f1b6000830184613ef7565b92915050565b600080600060608486031215613f3a57613f39613a29565b5b6000613f4886828701613e23565b9350506020613f5986828701613e23565b9250506040613f6a86828701613c26565b9150509250925092565b600060208284031215613f8a57613f89613a29565b5b6000613f9884828501613e23565b91505092915050565b600081519050919050565b600082825260208201905092915050565b6000819050602082019050919050565b613fd681613c05565b82525050565b6000613fe88383613fcd565b60208301905092915050565b6000602082019050919050565b600061400c82613fa1565b6140168185613fac565b935061402183613fbd565b8060005b838110156140525781516140398882613fdc565b975061404483613ff4565b925050600181019050614025565b5085935050505092915050565b600060208201905081810360008301526140798184614001565b905092915050565b600067ffffffffffffffff82111561409c5761409b613c72565b5b6140a582613b99565b9050602081019050919050565b60006140c56140c084614081565b613cd2565b9050828152602081018484840111156140e1576140e0613c6d565b5b6140ec848285613d1e565b509392505050565b600082601f83011261410957614108613c68565b5b81356141198482602086016140b2565b91505092915050565b60006020828403121561413857614137613a29565b5b600082013567ffffffffffffffff81111561415657614155613a2e565b5b614162848285016140f4565b91505092915050565b600067ffffffffffffffff82111561418657614185613c72565b5b602082029050602081019050919050565b600080fd5b60006141af6141aa8461416b565b613cd2565b905080838252602082019050602084028301858111156141d2576141d1614197565b5b835b818110156141fb57806141e78882613e23565b8452602084019350506020810190506141d4565b5050509392505050565b600082601f83011261421a57614219613c68565b5b813561422a84826020860161419c565b91505092915050565b600067ffffffffffffffff82111561424e5761424d613c72565b5b602082029050602081019050919050565b600061427261426d84614233565b613cd2565b9050808382526020820190506020840283018581111561429557614294614197565b5b835b818110156142be57806142aa8882613c26565b845260208401935050602081019050614297565b5050509392505050565b600082601f8301126142dd576142dc613c68565b5b81356142ed84826020860161425f565b91505092915050565b6000806040838503121561430d5761430c613a29565b5b600083013567ffffffffffffffff81111561432b5761432a613a2e565b5b61433785828601614205565b925050602083013567ffffffffffffffff81111561435857614357613a2e565b5b614364858286016142c8565b9150509250929050565b6000806040838503121561438557614384613a29565b5b600061439385828601613e23565b92505060206143a485828601613e8f565b9150509250929050565b6000602082840312156143c4576143c3613a29565b5b600082013567ffffffffffffffff8111156143e2576143e1613a2e565b5b6143ee848285016142c8565b91505092915050565b6000806000806080858703121561441157614410613a29565b5b600061441f87828801613e23565b945050602061443087828801613e23565b935050604061444187828801613c26565b925050606085013567ffffffffffffffff81111561446257614461613a2e565b5b61446e87828801613d6f565b91505092959194509250565b6000602082840312156144905761448f613a29565b5b600061449e84828501613e8f565b91505092915050565b600080604083850312156144be576144bd613a29565b5b60006144cc85828601613e23565b92505060206144dd85828601613e23565b9150509250929050565b6000806000806080858703121561450157614500613a29565b5b600061450f87828801613e23565b945050602061452087828801613c26565b935050604061453187828801613c26565b925050606085013567ffffffffffffffff81111561455257614551613a2e565b5b61455e87828801613d6f565b91505092959194509250565b7f4e487b7100000000000000000000000000000000000000000000000000000000600052602260045260246000fd5b600060028204905060018216806145b157607f821691505b602082108114156145c5576145c461456a565b5b50919050565b7f4552433732313a20617070726f76656420717565727920666f72206e6f6e657860008201527f697374656e7420746f6b656e0000000000000000000000000000000000000000602082015250565b6000614627602c83613b55565b9150614632826145cb565b604082019050919050565b600060208201905081810360008301526146568161461a565b9050919050565b7f536f6c646f757421000000000000000000000000000000000000000000000000600082015250565b6000614693600883613b55565b915061469e8261465d565b602082019050919050565b600060208201905081810360008301526146c281614686565b9050919050565b7f53616c6573206e6f74206f70656e000000000000000000000000000000000000600082015250565b60006146ff600e83613b55565b915061470a826146c9565b602082019050919050565b6000602082019050818103600083015261472e816146f2565b9050919050565b7f4d6178206c696d69740000000000000000000000000000000000000000000000600082015250565b600061476b600983613b55565b915061477682614735565b602082019050919050565b6000602082019050818103600083015261479a8161475e565b9050919050565b7f4e487b7100000000000000000000000000000000000000000000000000000000600052601160045260246000fd5b60006147db82613c05565b91506147e683613c05565b9250827fffffffffffffffffffffffffffffffffffffffffffffffffffffffffffffffff0382111561481b5761481a6147a1565b5b828201905092915050565b7f56616c75652062656c6f77207072696365000000000000000000000000000000600082015250565b600061485c601183613b55565b915061486782614826565b602082019050919050565b6000602082019050818103600083015261488b8161484f565b9050919050565b7f4e6f7420617574686f72697a656420746f206d696e7400000000000000000000600082015250565b60006148c8601683613b55565b91506148d382614892565b602082019050919050565b600060208201905081810360008301526148f7816148bb565b9050919050565b600061490982613c05565b915061491483613c05565b925082821015614927576149266147a1565b5b828203905092915050565b7f4f7574206f662074696d65000000000000000000000000000000000000000000600082015250565b6000614968600b83613b55565b915061497382614932565b602082019050919050565b600060208201905081810360008301526149978161495b565b9050919050565b600060ff82169050919050565b60006149b68261499e565b915060ff8214156149ca576149c96147a1565b5b600182019050919050565b7f4552433732313a20617070726f76616c20746f2063757272656e74206f776e6560008201527f7200000000000000000000000000000000000000000000000000000000000000602082015250565b6000614a31602183613b55565b9150614a3c826149d5565b604082019050919050565b60006020820190508181036000830152614a6081614a24565b9050919050565b7f4552433732313a20617070726f76652063616c6c6572206973206e6f74206f7760008201527f6e6572206e6f7220617070726f76656420666f7220616c6c0000000000000000602082015250565b6000614ac3603883613b55565b9150614ace82614a67565b604082019050919050565b60006020820190508181036000830152614af281614ab6565b9050919050565b7f4f776e61626c653a2063616c6c6572206973206e6f7420746865206f776e6572600082015250565b6000614b2f602083613b55565b9150614b3a82614af9565b602082019050919050565b60006020820190508181036000830152614b5e81614b22565b9050919050565b7f4552433732313a207472616e736665722063616c6c6572206973206e6f74206f60008201527f776e6572206e6f7220617070726f766564000000000000000000000000000000602082015250565b6000614bc1603183613b55565b9150614bcc82614b65565b604082019050919050565b60006020820190508181036000830152614bf081614bb4565b9050919050565b7f455243373231456e756d657261626c653a206f776e657220696e646578206f7560008201527f74206f6620626f756e6473000000000000000000000000000000000000000000602082015250565b6000614c53602b83613b55565b9150614c5e82614bf7565b604082019050919050565b60006020820190508181036000830152614c8281614c46565b9050919050565b7f4e487b7100000000000000000000000000000000000000000000000000000000600052603260045260246000fd5b6000614cc382613c05565b91507fffffffffffffffffffffffffffffffffffffffffffffffffffffffffffffffff821415614cf657614cf56147a1565b5b600182019050919050565b7f455243373231456e756d657261626c653a20676c6f62616c20696e646578206f60008201527f7574206f6620626f756e64730000000000000000000000000000000000000000602082015250565b6000614d5d602c83613b55565b9150614d6882614d01565b604082019050919050565b60006020820190508181036000830152614d8c81614d50565b9050919050565b7f4552433732313a206f776e657220717565727920666f72206e6f6e657869737460008201527f656e7420746f6b656e0000000000000000000000000000000000000000000000602082015250565b6000614def602983613b55565b9150614dfa82614d93565b604082019050919050565b60006020820190508181036000830152614e1e81614de2565b9050919050565b7f4552433732313a2062616c616e636520717565727920666f7220746865207a6560008201527f726f206164647265737300000000000000000000000000000000000000000000602082015250565b6000614e81602a83613b55565b9150614e8c82614e25565b604082019050919050565b60006020820190508181036000830152614eb081614e74565b9050919050565b7f4552433732313a20617070726f766520746f2063616c6c657200000000000000600082015250565b6000614eed601983613b55565b9150614ef882614eb7565b602082019050919050565b60006020820190508181036000830152614f1c81614ee0565b9050919050565b7f50617573652069732064697361626c6500000000000000000000000000000000600082015250565b6000614f59601083613b55565b9150614f6482614f23565b602082019050919050565b60006020820190508181036000830152614f8881614f4c565b9050919050565b7f4552433732314d657461646174613a2055524920717565727920666f72206e6f60008201527f6e6578697374656e7420746f6b656e0000000000000000000000000000000000602082015250565b6000614feb602f83613b55565b9150614ff682614f8f565b604082019050919050565b6000602082019050818103600083015261501a81614fde565b9050919050565b600081905092915050565b600061503782613b4a565b6150418185615021565b9350615051818560208601613b66565b80840191505092915050565b6000615069828561502c565b9150615075828461502c565b91508190509392505050565b60006060820190506150966000830186613b20565b6150a36020830185613ef7565b6150b06040830184613ef7565b949350505050565b7f4f776e61626c653a206e6577206f776e657220697320746865207a65726f206160008201527f6464726573730000000000000000000000000000000000000000000000000000602082015250565b6000615114602683613b55565b915061511f826150b8565b604082019050919050565b6000602082019050818103600083015261514381615107565b9050919050565b7f4552433732313a206f70657261746f7220717565727920666f72206e6f6e657860008201527f697374656e7420746f6b656e0000000000000000000000000000000000000000602082015250565b60006151a6602c83613b55565b91506151b18261514a565b604082019050919050565b600060208201905081810360008301526151d581615199565b9050919050565b7f4552433732313a207472616e73666572206f6620746f6b656e2074686174206960008201527f73206e6f74206f776e0000000000000000000000000000000000000000000000602082015250565b6000615238602983613b55565b9150615243826151dc565b604082019050919050565b600060208201905081810360008301526152678161522b565b9050919050565b7f4552433732313a207472616e7366657220746f20746865207a65726f2061646460008201527f7265737300000000000000000000000000000000000000000000000000000000602082015250565b60006152ca602483613b55565b91506152d58261526e565b604082019050919050565b600060208201905081810360008301526152f9816152bd565b9050919050565b600061530b82613c05565b915061531683613c05565b9250817fffffffffffffffffffffffffffffffffffffffffffffffffffffffffffffffff048311821515161561534f5761534e6147a1565b5b828202905092915050565b7f4e487b7100000000000000000000000000000000000000000000000000000000600052601260045260246000fd5b600061539482613c05565b915061539f83613c05565b9250826153af576153ae61535a565b5b828204905092915050565b600081905092915050565b50565b60006153d56000836153ba565b91506153e0826153c5565b600082019050919050565b60006153f6826153c8565b9150819050919050565b7f5472616e73666572206661696c65642e00000000000000000000000000000000600082015250565b6000615436601083613b55565b915061544182615400565b602082019050919050565b6000602082019050818103600083015261546581615429565b9050919050565b7f4552433732313a207472616e7366657220746f206e6f6e20455243373231526560008201527f63656976657220696d706c656d656e7465720000000000000000000000000000602082015250565b60006154c8603283613b55565b91506154d38261546c565b604082019050919050565b600060208201905081810360008301526154f7816154bb565b9050919050565b600061550982613c05565b915061551483613c05565b9250826155245761552361535a565b5b828206905092915050565b600081519050919050565b600082825260208201905092915050565b60006155568261552f565b615560818561553a565b9350615570818560208601613b66565b61557981613b99565b840191505092915050565b60006080820190506155996000830187613b20565b6155a66020830186613b20565b6155b36040830185613ef7565b81810360608301526155c5818461554b565b905095945050505050565b6000815190506155df81613a5f565b92915050565b6000602082840312156155fb576155fa613a29565b5b6000615609848285016155d0565b91505092915050565b7f4e487b7100000000000000000000000000000000000000000000000000000000600052602160045260246000fd5b7f45434453413a20696e76616c6964207369676e61747572650000000000000000600082015250565b6000615677601883613b55565b915061568282615641565b602082019050919050565b600060208201905081810360008301526156a68161566a565b9050919050565b7f45434453413a20696e76616c6964207369676e6174757265206c656e67746800600082015250565b60006156e3601f83613b55565b91506156ee826156ad565b602082019050919050565b60006020820190508181036000830152615712816156d6565b9050919050565b7f45434453413a20696e76616c6964207369676e6174757265202773272076616c60008201527f7565000000000000000000000000000000000000000000000000000000000000602082015250565b6000615775602283613b55565b915061578082615719565b604082019050919050565b600060208201905081810360008301526157a481615768565b9050919050565b7f45434453413a20696e76616c6964207369676e6174757265202776272076616c60008201527f7565000000000000000000000000000000000000000000000000000000000000602082015250565b6000615807602283613b55565b9150615812826157ab565b604082019050919050565b60006020820190508181036000830152615836816157fa565b9050919050565b7f4e487b7100000000000000000000000000000000000000000000000000000000600052603160045260246000fd5b6000819050919050565b61587f8161586c565b82525050565b61588e8161499e565b82525050565b60006080820190506158a96000830187615876565b6158b66020830186615885565b6158c36040830185615876565b6158d06060830184615876565b95945050505050565b7f4552433732313a206d696e7420746f20746865207a65726f2061646472657373600082015250565b600061590f602083613b55565b915061591a826158d9565b602082019050919050565b6000602082019050818103600083015261593e81615902565b9050919050565b7f4552433732313a20746f6b656e20616c7265616479206d696e74656400000000600082015250565b600061597b601c83613b55565b915061598682615945565b602082019050919050565b600060208201905081810360008301526159aa8161596e565b905091905056fea2646970667358221220fd6c991f2043a53113cf1315fb2ee13bf86f2bc1f932675b40c5993ca854619964736f6c634300080a0033",
  "immutableReferences": {},
  "source": "// SPDX-License-Identifier: MIT\r\npragma solidity ^0.8.0;\r\n\r\nimport \"./ERC721Enumerable.sol\";\r\nimport \"@openzeppelin/contracts/access/Ownable.sol\";\r\nimport \"@openzeppelin/contracts/utils/math/SafeMath.sol\";\r\nimport \"@openzeppelin/contracts/utils/Counters.sol\";\r\nimport \"@openzeppelin/contracts/utils/cryptography/ECDSA.sol\";\r\n\r\n// @author: olive\r\n// @co-author: Gurtej\r\n\r\n/////////////////////////////////////////////////////////////////////////////////////////\r\n/////////////////////////////////////////////////////////////////////////////////////////\r\n//                                                                                    ///\r\n//                                                                                    ///\r\n//                                                                                    ///\r\n//                                                                                    ///\r\n//                                                                                    ///\r\n//                                                                                    ///\r\n//         @@@@@@@@@                    @@@@@                      @@@@@@             ///\r\n//         @@     @@@                 @@     @@                  @@      @@           ///\r\n//         @@      @@                @@       @@               @@         @@          ///\r\n//         @@     @@@               @@         @@             @@                      ///\r\n//         @@@@@@@@@                @@         @@             @@    @@@@@@@@@         ///\r\n//         @@     @@@               @@         @@              @@       @@            ///\r\n//         @@      @@                @@       @@                @@      @@            ///\r\n//         @@     @@@                 @@     @@                   @@@@  @@            ///\r\n//         @@@@@@@@                     @@@@@                           @@            ///\r\n//                                                                                    ///\r\n//                                                                                    ///\r\n//                                                                                    ///\r\n//                                                                                    ///\r\n//                                                                                    ///\r\n//                                                                                    ///\r\n/////////////////////////////////////////////////////////////////////////////////////////\r\n/////////////////////////////////////////////////////////////////////////////////////////\r\n\r\ncontract BOG is ERC721Enumerable, Ownable {\r\n    using SafeMath for uint256;\r\n    using Counters for Counters.Counter;\r\n    using Strings for uint256;\r\n\r\n    uint256 public constant MAX_ELEMENTS = 10000;\r\n    uint256 public PRICE = 0.07 ether;\r\n    uint256 public constant START_AT = 1;\r\n\r\n    bool private PAUSE = true;\r\n\r\n    Counters.Counter private _tokenIdTracker;\r\n\r\n    string public baseTokenURI;\r\n\r\n    bool public META_REVEAL = false;\r\n    uint256 public HIDE_FROM = 1;\r\n    uint256 public HIDE_TO = 10000;\r\n    string public sampleTokenURI;\r\n\r\n    address public constant creator1Address = 0x2F5C4Ca63835D877Aa3a570B3F68D8c05353774E;\r\n    address public constant creator2Address = 0xDbe24D356c5fBAa4F18C37f6610C565E50D6C195;\r\n    address public constant creator3Address = 0x3a372F725A97b968a839E3d49a0D7320f52BE0e2;\r\n\r\n    event PauseEvent(bool pause);\r\n    event welcomeToBOG(uint256 indexed id);\r\n    event NewPriceEvent(uint256 price);\r\n\r\n    constructor(string memory baseURI) ERC721(\"Babies of Gods\", \"BOG\"){\r\n        setBaseURI(baseURI);\r\n    }\r\n\r\n    modifier saleIsOpen {\r\n        require(totalToken() <= MAX_ELEMENTS, \"Soldout!\");\r\n        require(!PAUSE, \"Sales not open\");\r\n        _;\r\n    }\r\n\r\n    function _baseURI() internal view virtual override returns (string memory) {\r\n        return baseTokenURI;\r\n    }\r\n\r\n    function setBaseURI(string memory baseURI) public onlyOwner {\r\n        baseTokenURI = baseURI;\r\n    }\r\n\r\n    function setSampleURI(string memory sampleURI) public onlyOwner {\r\n        sampleTokenURI = sampleURI;\r\n    }\r\n\r\n    function totalToken() public view returns (uint256) {\r\n        return _tokenIdTracker.current();\r\n    }\r\n\r\n    function tokenURI(uint256 tokenId) public view virtual override returns (string memory) {\r\n        require(_exists(tokenId), \"ERC721Metadata: URI query for nonexistent token\");\r\n\r\n        if(!META_REVEAL && tokenId >= HIDE_FROM && tokenId <= HIDE_TO) \r\n            return sampleTokenURI;\r\n        \r\n        string memory baseURI = _baseURI();\r\n        return bytes(baseURI).length > 0 ? string(abi.encodePacked(baseURI, tokenId.toString())) : \"\";\r\n    }\r\n\r\n    function mint(uint256 _tokenAmount, uint256 _timestamp, bytes memory _signature) public payable saleIsOpen {\r\n\r\n        uint256 total = totalToken();\r\n        require(_tokenAmount <= 3, \"Max limit\");\r\n        require(total + _tokenAmount <= MAX_ELEMENTS, \"Max limit\");\r\n        require(msg.value >= price(_tokenAmount), \"Value below price\");\r\n\r\n        address wallet = _msgSender();\r\n\r\n        address signerOwner = signatureWallet(wallet,_tokenAmount,_timestamp,_signature);\r\n        require(signerOwner == owner(), \"Not authorized to mint\");\r\n\r\n        require(block.timestamp >= _timestamp - 30, \"Out of time\");\r\n\r\n        for(uint8 i = 1; i <= _tokenAmount; i++){\r\n            _mintAnElement(wallet, total + i);\r\n        }\r\n\r\n    }\r\n\r\n    function signatureWallet(address wallet, uint256 _tokenAmount, uint256 _timestamp, bytes memory _signature) public pure returns (address){\r\n\r\n        return ECDSA.recover(keccak256(abi.encode(wallet, _tokenAmount, _timestamp)), _signature);\r\n\r\n    }\r\n\r\n    function _mintAnElement(address _to, uint256 _tokenId) private {\r\n\r\n        _tokenIdTracker.increment();\r\n        _safeMint(_to, _tokenId);\r\n\r\n        emit welcomeToBOG(_tokenId);\r\n    }\r\n\r\n    function price(uint256 _count) public view returns (uint256) {\r\n        return PRICE.mul(_count);\r\n    }\r\n\r\n    function walletOfOwner(address _owner) external view returns (uint256[] memory) {\r\n        uint256 tokenCount = balanceOf(_owner);\r\n\r\n        uint256[] memory tokensId = new uint256[](tokenCount);\r\n        for (uint256 i = 0; i < tokenCount; i++) {\r\n            tokensId[i] = tokenOfOwnerByIndex(_owner, i);\r\n        }\r\n\r\n        return tokensId;\r\n    }\r\n\r\n    function setPause(bool _pause) public onlyOwner{\r\n        PAUSE = _pause;\r\n        emit PauseEvent(PAUSE);\r\n    }\r\n\r\n    function setPrice(uint256 _price) public onlyOwner{\r\n        PRICE = _price;\r\n        emit NewPriceEvent(PRICE);\r\n    }\r\n\r\n\r\n    function setMetaReveal(bool _reveal, uint256 _from, uint256 _to) public onlyOwner{\r\n        META_REVEAL = _reveal;\r\n        HIDE_FROM = _from;\r\n        HIDE_TO = _to;\r\n    }\r\n\r\n    function withdrawAll() public onlyOwner {\r\n        uint256 balance = address(this).balance;\r\n        require(balance > 0);\r\n        _widthdraw(creator1Address, balance.mul(15).div(100));\r\n        _widthdraw(creator2Address, balance.mul(15).div(100));\r\n        _widthdraw(creator3Address, address(this).balance);\r\n    }\r\n\r\n    function _widthdraw(address _address, uint256 _amount) private {\r\n        (bool success, ) = _address.call{value: _amount}(\"\");\r\n        require(success, \"Transfer failed.\");\r\n    }\r\n\r\n    function giftMint(address[] memory _addrs, uint[] memory _tokenAmounts) public onlyOwner {\r\n        uint totalQuantity = 0;\r\n        uint256 total = totalToken();\r\n        for(uint i = 0; i < _addrs.length; i ++) {\r\n            totalQuantity += _tokenAmounts[i];\r\n        }\r\n        require( total + totalQuantity <= MAX_ELEMENTS, \"Max limit\" );\r\n        for(uint i = 0; i < _addrs.length; i ++){\r\n            for(uint j = 0; j < _tokenAmounts[i]; j ++){\r\n                total ++;\r\n                _mintAnElement(_addrs[i], total);\r\n            }\r\n        }\r\n    }\r\n\r\n    function mintUnsoldTokens(uint256[] memory _tokensId) public onlyOwner {\r\n\r\n        require(PAUSE, \"Pause is disable\");\r\n\r\n        for (uint256 i = 0; i < _tokensId.length; i++) {\r\n            if(rawOwnerOf(_tokensId[i]) == address(0)){\r\n                _mintAnElement(owner(), _tokensId[i]);\r\n            }\r\n        }\r\n    }\r\n}",
  "sourcePath": "C:\\Users\\Aish\\BOG\\contracts\\BOG.sol",
  "compiler": {
    "name": "solc",
    "version": "0.8.10+commit.fc410830.Emscripten.clang"
  },
  "schemaVersion": "3.4.3",
  "updatedAt": "2022-01-11T18:04:44.076Z",
  "devdoc": {
    "kind": "dev",
    "methods": {
      "approve(address,uint256)": {
        "details": "See {IERC721-approve}."
      },
      "balanceOf(address)": {
        "details": "See {IERC721-balanceOf}."
      },
      "getApproved(uint256)": {
        "details": "See {IERC721-getApproved}."
      },
      "isApprovedForAll(address,address)": {
        "details": "See {IERC721-isApprovedForAll}."
      },
      "name()": {
        "details": "See {IERC721Metadata-name}."
      },
      "owner()": {
        "details": "Returns the address of the current owner."
      },
      "ownerOf(uint256)": {
        "details": "See {IERC721-ownerOf}."
      },
      "rawOwnerOf(uint256)": {
        "details": "Edit for rawOwnerOf token"
      },
      "renounceOwnership()": {
        "details": "Leaves the contract without owner. It will not be possible to call `onlyOwner` functions anymore. Can only be called by the current owner. NOTE: Renouncing ownership will leave the contract without an owner, thereby removing any functionality that is only available to the owner."
      },
      "safeTransferFrom(address,address,uint256)": {
        "details": "See {IERC721-safeTransferFrom}."
      },
      "safeTransferFrom(address,address,uint256,bytes)": {
        "details": "See {IERC721-safeTransferFrom}."
      },
      "setApprovalForAll(address,bool)": {
        "details": "See {IERC721-setApprovalForAll}."
      },
      "supportsInterface(bytes4)": {
        "details": "See {IERC165-supportsInterface}."
      },
      "symbol()": {
        "details": "See {IERC721Metadata-symbol}."
      },
      "tokenByIndex(uint256)": {
        "details": "See {IERC721Enumerable-tokenByIndex}."
      },
      "tokenOfOwnerByIndex(address,uint256)": {
        "details": "See {IERC721Enumerable-tokenOfOwnerByIndex}."
      },
      "tokenURI(uint256)": {
        "details": "See {IERC721Metadata-tokenURI}."
      },
      "totalSupply()": {
        "details": "See {IERC721Enumerable-totalSupply}."
      },
      "transferFrom(address,address,uint256)": {
        "details": "See {IERC721-transferFrom}."
      },
      "transferOwnership(address)": {
        "details": "Transfers ownership of the contract to a new account (`newOwner`). Can only be called by the current owner."
      }
    },
    "version": 1
  },
  "userdoc": {
    "kind": "user",
    "methods": {},
    "version": 1
  }
}